{
  "_format": "hh-sol-artifact-1",
  "contractName": "DefaultERC6551Account",
  "sourceName": "contracts/DefaultERC6551Account.sol",
  "abi": [
    {
      "inputs": [
        {
          "internalType": "uint256",
          "name": "_size",
          "type": "uint256"
        },
        {
          "internalType": "uint256",
          "name": "_start",
          "type": "uint256"
        },
        {
          "internalType": "uint256",
          "name": "_end",
          "type": "uint256"
        }
      ],
      "name": "InvalidCodeAtRange",
      "type": "error"
    },
    {
      "inputs": [
        {
          "internalType": "address",
          "name": "to",
          "type": "address"
        },
        {
          "internalType": "uint256",
          "name": "value",
          "type": "uint256"
        },
        {
          "internalType": "bytes",
          "name": "data",
          "type": "bytes"
        }
      ],
      "name": "executeCall",
      "outputs": [
        {
          "internalType": "bytes",
          "name": "result",
          "type": "bytes"
        }
      ],
      "stateMutability": "payable",
      "type": "function"
    },
    {
      "inputs": [
        {
          "internalType": "bytes32",
          "name": "hash",
          "type": "bytes32"
        },
        {
          "internalType": "bytes",
          "name": "signature",
          "type": "bytes"
        }
      ],
      "name": "isValidSignature",
      "outputs": [
        {
          "internalType": "bytes4",
          "name": "magicValue",
          "type": "bytes4"
        }
      ],
      "stateMutability": "view",
      "type": "function"
    },
    {
      "inputs": [],
      "name": "nonce",
      "outputs": [
        {
          "internalType": "uint256",
          "name": "",
          "type": "uint256"
        }
      ],
      "stateMutability": "view",
      "type": "function"
    },
    {
      "inputs": [],
      "name": "owner",
      "outputs": [
        {
          "internalType": "address",
          "name": "",
          "type": "address"
        }
      ],
      "stateMutability": "view",
      "type": "function"
    },
    {
      "inputs": [
        {
          "internalType": "bytes4",
          "name": "interfaceId",
          "type": "bytes4"
        }
      ],
      "name": "supportsInterface",
      "outputs": [
        {
          "internalType": "bool",
          "name": "",
          "type": "bool"
        }
      ],
      "stateMutability": "pure",
      "type": "function"
    },
    {
      "inputs": [],
      "name": "token",
      "outputs": [
        {
          "internalType": "uint256",
          "name": "chainId",
          "type": "uint256"
        },
        {
          "internalType": "address",
          "name": "tokenContract",
          "type": "address"
        },
        {
          "internalType": "uint256",
          "name": "tokenId",
          "type": "uint256"
        }
      ],
      "stateMutability": "view",
      "type": "function"
    },
    {
      "stateMutability": "payable",
      "type": "receive"
    }
  ],
  "bytecode": "0x608060405234801561001057600080fd5b506112ee806100206000396000f3fe6080604052600436106100595760003560e01c806301ffc9a7146100655780631626ba7e146100a25780638da5cb5b146100df5780639e5d4c491461010a578063affed0e01461013a578063fc0c546a1461016557610060565b3661006057005b600080fd5b34801561007157600080fd5b5061008c60048036038101906100879190610983565b610192565b60405161009991906109cb565b60405180910390f35b3480156100ae57600080fd5b506100c960048036038101906100c49190610b62565b610264565b6040516100d69190610bcd565b60405180910390f35b3480156100eb57600080fd5b506100f461029d565b6040516101019190610c29565b60405180910390f35b610124600480360381019061011f9190610d06565b6103ae565b6040516101319190610df9565b60405180910390f35b34801561014657600080fd5b5061014f6104c5565b60405161015c9190610e2a565b60405180910390f35b34801561017157600080fd5b5061017a6104cb565b60405161018993929190610e45565b60405180910390f35b60007f01ffc9a7000000000000000000000000000000000000000000000000000000007bffffffffffffffffffffffffffffffffffffffffffffffffffffffff1916827bffffffffffffffffffffffffffffffffffffffffffffffffffffffff1916148061025d57507f400a0398000000000000000000000000000000000000000000000000000000007bffffffffffffffffffffffffffffffffffffffffffffffffffffffff1916827bffffffffffffffffffffffffffffffffffffffffffffffffffffffff1916145b9050919050565b60008061027961027261029d565b8585610521565b9050801561029157631626ba7e60e01b915050610297565b60009150505b92915050565b6000806000803073ffffffffffffffffffffffffffffffffffffffff1663fc0c546a6040518163ffffffff1660e01b8152600401606060405180830381865afa1580156102ee573d6000803e3d6000fd5b505050506040513d601f19601f820116820180604052508101906103129190610ea6565b92509250925046831461032b57600093505050506103ab565b8173ffffffffffffffffffffffffffffffffffffffff16636352211e826040518263ffffffff1660e01b81526004016103649190610e2a565b602060405180830381865afa158015610381573d6000803e3d6000fd5b505050506040513d601f19601f820116820180604052508101906103a59190610ef9565b93505050505b90565b60606103b861029d565b73ffffffffffffffffffffffffffffffffffffffff163373ffffffffffffffffffffffffffffffffffffffff1614610425576040517f08c379a000000000000000000000000000000000000000000000000000000000815260040161041c90610f83565b60405180910390fd5b60008573ffffffffffffffffffffffffffffffffffffffff1685858560405161044f929190610fd3565b60006040518083038185875af1925050503d806000811461048c576040519150601f19603f3d011682016040523d82523d6000602084013e610491565b606091505b508093508192505050806104a757815160208301fd5b60008081546104b59061101b565b9190508190555050949350505050565b60005481565b6000806000803073ffffffffffffffffffffffffffffffffffffffff163b9050610502306060836104fc9190611063565b836105b0565b80602001905181019061051591906110d5565b93509350935050909192565b60008060006105308585610695565b915091506000600481111561054857610547611128565b5b81600481111561055b5761055a611128565b5b14801561059357508573ffffffffffffffffffffffffffffffffffffffff168273ffffffffffffffffffffffffffffffffffffffff16145b806105a557506105a48686866106e6565b5b925050509392505050565b606060006105bd8561082a565b9050600081036105df576040518060200160405280600081525091505061068e565b808411156105ff576040518060200160405280600081525091505061068e565b83831015610648578084846040517f2c4a89fa00000000000000000000000000000000000000000000000000000000815260040161063f93929190611157565b60405180910390fd5b600084840390506000858303905060008282106106655782610667565b815b90506040519450601f19601f60208301011685016040528085528087602087018a3c505050505b9392505050565b60008060418351036106d65760008060006020860151925060408601519150606086015160001a90506106ca87828585610835565b945094505050506106df565b60006002915091505b9250929050565b60008060008573ffffffffffffffffffffffffffffffffffffffff16631626ba7e60e01b868660405160240161071d92919061119d565b604051602081830303815290604052907bffffffffffffffffffffffffffffffffffffffffffffffffffffffff19166020820180517bffffffffffffffffffffffffffffffffffffffffffffffffffffffff838183161783525050505060405161078791906111fe565b600060405180830381855afa9150503d80600081146107c2576040519150601f19603f3d011682016040523d82523d6000602084013e6107c7565b606091505b50915091508180156107db57506020815110155b801561081f5750631626ba7e60e01b7bffffffffffffffffffffffffffffffffffffffffffffffffffffffff19168180602001905181019061081d919061122a565b145b925050509392505050565b6000813b9050919050565b6000807f7fffffffffffffffffffffffffffffff5d576e7357a4501ddfe92f46681b20a08360001c111561087057600060039150915061090e565b6000600187878787604051600081526020016040526040516108959493929190611273565b6020604051602081039080840390855afa1580156108b7573d6000803e3d6000fd5b505050602060405103519050600073ffffffffffffffffffffffffffffffffffffffff168173ffffffffffffffffffffffffffffffffffffffff16036109055760006001925092505061090e565b80600092509250505b94509492505050565b6000604051905090565b600080fd5b600080fd5b60007fffffffff0000000000000000000000000000000000000000000000000000000082169050919050565b6109608161092b565b811461096b57600080fd5b50565b60008135905061097d81610957565b92915050565b60006020828403121561099957610998610921565b5b60006109a78482850161096e565b91505092915050565b60008115159050919050565b6109c5816109b0565b82525050565b60006020820190506109e060008301846109bc565b92915050565b6000819050919050565b6109f9816109e6565b8114610a0457600080fd5b50565b600081359050610a16816109f0565b92915050565b600080fd5b600080fd5b6000601f19601f8301169050919050565b7f4e487b7100000000000000000000000000000000000000000000000000000000600052604160045260246000fd5b610a6f82610a26565b810181811067ffffffffffffffff82111715610a8e57610a8d610a37565b5b80604052505050565b6000610aa1610917565b9050610aad8282610a66565b919050565b600067ffffffffffffffff821115610acd57610acc610a37565b5b610ad682610a26565b9050602081019050919050565b82818337600083830152505050565b6000610b05610b0084610ab2565b610a97565b905082815260208101848484011115610b2157610b20610a21565b5b610b2c848285610ae3565b509392505050565b600082601f830112610b4957610b48610a1c565b5b8135610b59848260208601610af2565b91505092915050565b60008060408385031215610b7957610b78610921565b5b6000610b8785828601610a07565b925050602083013567ffffffffffffffff811115610ba857610ba7610926565b5b610bb485828601610b34565b9150509250929050565b610bc78161092b565b82525050565b6000602082019050610be26000830184610bbe565b92915050565b600073ffffffffffffffffffffffffffffffffffffffff82169050919050565b6000610c1382610be8565b9050919050565b610c2381610c08565b82525050565b6000602082019050610c3e6000830184610c1a565b92915050565b610c4d81610c08565b8114610c5857600080fd5b50565b600081359050610c6a81610c44565b92915050565b6000819050919050565b610c8381610c70565b8114610c8e57600080fd5b50565b600081359050610ca081610c7a565b92915050565b600080fd5b600080fd5b60008083601f840112610cc657610cc5610a1c565b5b8235905067ffffffffffffffff811115610ce357610ce2610ca6565b5b602083019150836001820283011115610cff57610cfe610cab565b5b9250929050565b60008060008060608587031215610d2057610d1f610921565b5b6000610d2e87828801610c5b565b9450506020610d3f87828801610c91565b935050604085013567ffffffffffffffff811115610d6057610d5f610926565b5b610d6c87828801610cb0565b925092505092959194509250565b600081519050919050565b600082825260208201905092915050565b60005b83811015610db4578082015181840152602081019050610d99565b60008484015250505050565b6000610dcb82610d7a565b610dd58185610d85565b9350610de5818560208601610d96565b610dee81610a26565b840191505092915050565b60006020820190508181036000830152610e138184610dc0565b905092915050565b610e2481610c70565b82525050565b6000602082019050610e3f6000830184610e1b565b92915050565b6000606082019050610e5a6000830186610e1b565b610e676020830185610c1a565b610e746040830184610e1b565b949350505050565b600081519050610e8b81610c7a565b92915050565b600081519050610ea081610c44565b92915050565b600080600060608486031215610ebf57610ebe610921565b5b6000610ecd86828701610e7c565b9350506020610ede86828701610e91565b9250506040610eef86828701610e7c565b9150509250925092565b600060208284031215610f0f57610f0e610921565b5b6000610f1d84828501610e91565b91505092915050565b600082825260208201905092915050565b7f4e6f7420746f6b656e206f776e65720000000000000000000000000000000000600082015250565b6000610f6d600f83610f26565b9150610f7882610f37565b602082019050919050565b60006020820190508181036000830152610f9c81610f60565b9050919050565b600081905092915050565b6000610fba8385610fa3565b9350610fc7838584610ae3565b82840190509392505050565b6000610fe0828486610fae565b91508190509392505050565b7f4e487b7100000000000000000000000000000000000000000000000000000000600052601160045260246000fd5b600061102682610c70565b91507fffffffffffffffffffffffffffffffffffffffffffffffffffffffffffffffff820361105857611057610fec565b5b600182019050919050565b600061106e82610c70565b915061107983610c70565b925082820390508181111561109157611090610fec565b5b92915050565b60006110a282610be8565b9050919050565b6110b281611097565b81146110bd57600080fd5b50565b6000815190506110cf816110a9565b92915050565b6000806000606084860312156110ee576110ed610921565b5b60006110fc86828701610e7c565b935050602061110d868287016110c0565b925050604061111e86828701610e7c565b9150509250925092565b7f4e487b7100000000000000000000000000000000000000000000000000000000600052602160045260246000fd5b600060608201905061116c6000830186610e1b565b6111796020830185610e1b565b6111866040830184610e1b565b949350505050565b611197816109e6565b82525050565b60006040820190506111b2600083018561118e565b81810360208301526111c48184610dc0565b90509392505050565b60006111d882610d7a565b6111e28185610fa3565b93506111f2818560208601610d96565b80840191505092915050565b600061120a82846111cd565b915081905092915050565b600081519050611224816109f0565b92915050565b6000602082840312156112405761123f610921565b5b600061124e84828501611215565b91505092915050565b600060ff82169050919050565b61126d81611257565b82525050565b6000608082019050611288600083018761118e565b6112956020830186611264565b6112a2604083018561118e565b6112af606083018461118e565b9594505050505056fea264697066735822122013cbf7fd917ed229b7bf7576ab08e547da94a86bbd811b9f423e543a79d8831264736f6c63430008120033",
  "linkReferences": {},
  "deployedLinkReferences": {}
}